{
  "_format": "hh-sol-artifact-1",
  "contractName": "Voting",
  "sourceName": "contracts/Voting.sol",
  "abi": [
    {
      "inputs": [],
      "stateMutability": "nonpayable",
      "type": "constructor"
    },
    {
      "inputs": [
        {
          "internalType": "address",
          "name": "voter",
          "type": "address"
        }
      ],
      "name": "AlreadyRegistered",
      "type": "error"
    },
    {
      "inputs": [
        {
          "internalType": "address",
          "name": "caller",
          "type": "address"
        }
      ],
      "name": "NotAVoter",
      "type": "error"
    },
    {
      "inputs": [
        {
          "internalType": "address",
          "name": "owner",
          "type": "address"
        }
      ],
      "name": "OwnableInvalidOwner",
      "type": "error"
    },
    {
      "inputs": [
        {
          "internalType": "address",
          "name": "account",
          "type": "address"
        }
      ],
      "name": "OwnableUnauthorizedAccount",
      "type": "error"
    },
    {
      "inputs": [
        {
          "internalType": "address",
          "name": "voter",
          "type": "address"
        }
      ],
      "name": "ProposalAlreadySubmitted",
      "type": "error"
    },
    {
      "inputs": [],
      "name": "ProposalDescriptionEmpty",
      "type": "error"
    },
    {
      "inputs": [
        {
          "internalType": "uint256",
          "name": "proposalId",
          "type": "uint256"
        },
        {
          "internalType": "uint256",
          "name": "proposalsLength",
          "type": "uint256"
        }
      ],
      "name": "ProposalNotFound",
      "type": "error"
    },
    {
      "inputs": [
        {
          "internalType": "address",
          "name": "voter",
          "type": "address"
        }
      ],
      "name": "VoterHasAlreadyVoted",
      "type": "error"
    },
    {
      "inputs": [
        {
          "internalType": "enum Voting.WorkflowStatus",
          "name": "current",
          "type": "uint8"
        },
        {
          "internalType": "enum Voting.WorkflowStatus",
          "name": "expected",
          "type": "uint8"
        }
      ],
      "name": "WrongWorkflowStatus",
      "type": "error"
    },
    {
      "anonymous": false,
      "inputs": [
        {
          "indexed": true,
          "internalType": "address",
          "name": "previousOwner",
          "type": "address"
        },
        {
          "indexed": true,
          "internalType": "address",
          "name": "newOwner",
          "type": "address"
        }
      ],
      "name": "OwnershipTransferred",
      "type": "event"
    },
    {
      "anonymous": false,
      "inputs": [
        {
          "indexed": false,
          "internalType": "uint256",
          "name": "proposalId",
          "type": "uint256"
        }
      ],
      "name": "ProposalRegistered",
      "type": "event"
    },
    {
      "anonymous": false,
      "inputs": [
        {
          "indexed": false,
          "internalType": "address",
          "name": "voter",
          "type": "address"
        },
        {
          "indexed": false,
          "internalType": "uint256",
          "name": "proposalId",
          "type": "uint256"
        }
      ],
      "name": "Voted",
      "type": "event"
    },
    {
      "anonymous": false,
      "inputs": [
        {
          "indexed": false,
          "internalType": "address",
          "name": "voterAddress",
          "type": "address"
        }
      ],
      "name": "VoterRegistered",
      "type": "event"
    },
    {
      "anonymous": false,
      "inputs": [
        {
          "indexed": false,
          "internalType": "enum Voting.WorkflowStatus",
          "name": "previousStatus",
          "type": "uint8"
        },
        {
          "indexed": false,
          "internalType": "enum Voting.WorkflowStatus",
          "name": "newStatus",
          "type": "uint8"
        }
      ],
      "name": "WorkflowStatusChange",
      "type": "event"
    },
    {
      "inputs": [],
      "name": "MAX_VOTERS",
      "outputs": [
        {
          "internalType": "uint16",
          "name": "",
          "type": "uint16"
        }
      ],
      "stateMutability": "view",
      "type": "function"
    },
    {
      "inputs": [
        {
          "internalType": "string",
          "name": "_desc",
          "type": "string"
        }
      ],
      "name": "addProposal",
      "outputs": [],
      "stateMutability": "nonpayable",
      "type": "function"
    },
    {
      "inputs": [
        {
          "internalType": "address",
          "name": "_addr",
          "type": "address"
        }
      ],
      "name": "addVoter",
      "outputs": [],
      "stateMutability": "nonpayable",
      "type": "function"
    },
    {
      "inputs": [],
      "name": "endProposalsRegistering",
      "outputs": [],
      "stateMutability": "nonpayable",
      "type": "function"
    },
    {
      "inputs": [],
      "name": "endVotingSession",
      "outputs": [],
      "stateMutability": "nonpayable",
      "type": "function"
    },
    {
      "inputs": [
        {
          "internalType": "uint256",
          "name": "_id",
          "type": "uint256"
        }
      ],
      "name": "getOneProposal",
      "outputs": [
        {
          "components": [
            {
              "internalType": "string",
              "name": "description",
              "type": "string"
            },
            {
              "internalType": "uint16",
              "name": "voteCount",
              "type": "uint16"
            }
          ],
          "internalType": "struct Voting.Proposal",
          "name": "",
          "type": "tuple"
        }
      ],
      "stateMutability": "view",
      "type": "function"
    },
    {
      "inputs": [],
      "name": "getProposalsCount",
      "outputs": [
        {
          "internalType": "uint256",
          "name": "",
          "type": "uint256"
        }
      ],
      "stateMutability": "view",
      "type": "function"
    },
    {
      "inputs": [
        {
          "internalType": "address",
          "name": "_addr",
          "type": "address"
        }
      ],
      "name": "getVoter",
      "outputs": [
        {
          "components": [
            {
              "internalType": "bool",
              "name": "isRegistered",
              "type": "bool"
            },
            {
              "internalType": "bool",
              "name": "hasVoted",
              "type": "bool"
            },
            {
              "internalType": "uint16",
              "name": "votedProposalId",
              "type": "uint16"
            }
          ],
          "internalType": "struct Voting.Voter",
          "name": "",
          "type": "tuple"
        }
      ],
      "stateMutability": "view",
      "type": "function"
    },
    {
      "inputs": [],
      "name": "getVoterCount",
      "outputs": [
        {
          "internalType": "uint256",
          "name": "",
          "type": "uint256"
        }
      ],
      "stateMutability": "view",
      "type": "function"
    },
    {
      "inputs": [
        {
          "internalType": "address",
          "name": "",
          "type": "address"
        }
      ],
      "name": "hasSubmittedProposal",
      "outputs": [
        {
          "internalType": "bool",
          "name": "",
          "type": "bool"
        }
      ],
      "stateMutability": "view",
      "type": "function"
    },
    {
      "inputs": [],
      "name": "owner",
      "outputs": [
        {
          "internalType": "address",
          "name": "",
          "type": "address"
        }
      ],
      "stateMutability": "view",
      "type": "function"
    },
    {
      "inputs": [],
      "name": "renounceOwnership",
      "outputs": [],
      "stateMutability": "nonpayable",
      "type": "function"
    },
    {
      "inputs": [],
      "name": "reset",
      "outputs": [],
      "stateMutability": "nonpayable",
      "type": "function"
    },
    {
      "inputs": [
        {
          "internalType": "uint256",
          "name": "_id",
          "type": "uint256"
        }
      ],
      "name": "setVote",
      "outputs": [],
      "stateMutability": "nonpayable",
      "type": "function"
    },
    {
      "inputs": [],
      "name": "startProposalsRegistering",
      "outputs": [],
      "stateMutability": "nonpayable",
      "type": "function"
    },
    {
      "inputs": [],
      "name": "startVotingSession",
      "outputs": [],
      "stateMutability": "nonpayable",
      "type": "function"
    },
    {
      "inputs": [],
      "name": "tallyVotes",
      "outputs": [],
      "stateMutability": "nonpayable",
      "type": "function"
    },
    {
      "inputs": [
        {
          "internalType": "address",
          "name": "newOwner",
          "type": "address"
        }
      ],
      "name": "transferOwnership",
      "outputs": [],
      "stateMutability": "nonpayable",
      "type": "function"
    },
    {
      "inputs": [
        {
          "internalType": "uint256",
          "name": "",
          "type": "uint256"
        }
      ],
      "name": "voterAddresses",
      "outputs": [
        {
          "internalType": "address",
          "name": "",
          "type": "address"
        }
      ],
      "stateMutability": "view",
      "type": "function"
    },
    {
      "inputs": [],
      "name": "winningProposalID",
      "outputs": [
        {
          "internalType": "uint16",
          "name": "",
          "type": "uint16"
        }
      ],
      "stateMutability": "view",
      "type": "function"
    },
    {
      "inputs": [],
      "name": "workflowStatus",
      "outputs": [
        {
          "internalType": "enum Voting.WorkflowStatus",
          "name": "",
          "type": "uint8"
        }
      ],
      "stateMutability": "view",
      "type": "function"
    }
  ],
  "bytecode": "0x608060405234801561001057600080fd5b5033600073ffffffffffffffffffffffffffffffffffffffff168173ffffffffffffffffffffffffffffffffffffffff16036100845760006040517f1e4fbdf700000000000000000000000000000000000000000000000000000000815260040161007b919061019e565b60405180910390fd5b6100938161009960201b60201c565b506101b9565b60008060009054906101000a900473ffffffffffffffffffffffffffffffffffffffff169050816000806101000a81548173ffffffffffffffffffffffffffffffffffffffff021916908373ffffffffffffffffffffffffffffffffffffffff1602179055508173ffffffffffffffffffffffffffffffffffffffff168173ffffffffffffffffffffffffffffffffffffffff167f8be0079c531659141344cd1fd0a4f28419497f9722a3daafe3b4186f6b6457e060405160405180910390a35050565b600073ffffffffffffffffffffffffffffffffffffffff82169050919050565b60006101888261015d565b9050919050565b6101988161017d565b82525050565b60006020820190506101b3600083018461018f565b92915050565b612369806101c86000396000f3fe608060405234801561001057600080fd5b50600436106101375760003560e01c8063a2788cce116100b8578063d4f50f981161007c578063d4f50f98146102ba578063d826f88f146102ea578063dd0e2373146102f4578063ee74c67814610324578063f2fde38b1461032e578063f4ab9adf1461034a57610137565b8063a2788cce1461024e578063a7bfab161461027e578063bdc0143114610288578063c7038a4e146102a6578063c88af42f146102b057610137565b8063715018a6116100ff578063715018a6146101ba5780638da5cb5b146101c457806398e527d3146101e25780639a17162914610200578063a1edffa21461023057610137565b806311174a291461013c578063230796ae1461015a5780632fdae3c514610176578063378a2178146101925780633ceed6921461019c575b600080fd5b610144610366565b6040516101519190611a23565b60405180910390f35b610174600480360381019061016f9190611a74565b610373565b005b610190600480360381019061018b9190611b06565b6106f5565b005b61019a610a44565b005b6101a4610b3f565b6040516101b19190611b70565b60405180910390f35b6101c2610b44565b005b6101cc610b58565b6040516101d99190611bcc565b60405180910390f35b6101ea610b81565b6040516101f79190611a23565b60405180910390f35b61021a60048036038101906102159190611c13565b610b8e565b6040516102279190611c5b565b60405180910390f35b610238610bae565b6040516102459190611ced565b60405180910390f35b61026860048036038101906102639190611a74565b610bc1565b6040516102759190611de4565b60405180910390f35b610286610caf565b005b610290610daa565b60405161029d9190611b70565b60405180910390f35b6102ae610dbe565b005b6102b8611022565b005b6102d460048036038101906102cf9190611c13565b61111d565b6040516102e19190611e57565b60405180910390f35b6102f26111cc565b005b61030e60048036038101906103099190611a74565b611369565b60405161031b9190611bcc565b60405180910390f35b61032c6113a8565b005b61034860048036038101906103439190611c13565b6114a3565b005b610364600480360381019061035f9190611c13565b611529565b005b6000600480549050905090565b600260003373ffffffffffffffffffffffffffffffffffffffff1673ffffffffffffffffffffffffffffffffffffffff16815260200190815260200160002060000160009054906101000a900460ff1661040457336040517f301dbcce0000000000000000000000000000000000000000000000000000000081526004016103fb9190611bcc565b60405180910390fd5b600380600581111561041957610418611c76565b5b600060169054906101000a900460ff16600581111561043b5761043a611c76565b5b1461048e57600060169054906101000a900460ff16816040517f35ae19f2000000000000000000000000000000000000000000000000000000008152600401610485929190611e72565b60405180910390fd5b6000600260003373ffffffffffffffffffffffffffffffffffffffff1673ffffffffffffffffffffffffffffffffffffffff16815260200190815260200160002090508060000160019054906101000a900460ff161561052557336040517f66a3f6cd00000000000000000000000000000000000000000000000000000000815260040161051c9190611bcc565b60405180910390fd5b600180549050831061057557826001805490506040517f9cf97c4d00000000000000000000000000000000000000000000000000000000815260040161056c929190611e9b565b60405180910390fd5b828160000160026101000a81548161ffff021916908361ffff16021790555060018160000160016101000a81548160ff021916908315150217905550600183815481106105c5576105c4611ec4565b5b9060005260206000209060020201600101600081819054906101000a900461ffff16809291906105f490611f22565b91906101000a81548161ffff021916908361ffff160217905550506001600060149054906101000a900461ffff1661ffff168154811061063757610636611ec4565b5b906000526020600020906002020160010160009054906101000a900461ffff1661ffff166001848154811061066f5761066e611ec4565b5b906000526020600020906002020160010160009054906101000a900461ffff1661ffff1611156106b75782600060146101000a81548161ffff021916908361ffff1602179055505b7f4d99b957a2bc29a30ebd96a7be8e68fe50a3c701db28a91436490b7d53870ca433846040516106e8929190611f4c565b60405180910390a1505050565b600260003373ffffffffffffffffffffffffffffffffffffffff1673ffffffffffffffffffffffffffffffffffffffff16815260200190815260200160002060000160009054906101000a900460ff1661078657336040517f301dbcce00000000000000000000000000000000000000000000000000000000815260040161077d9190611bcc565b60405180910390fd5b600180600581111561079b5761079a611c76565b5b600060169054906101000a900460ff1660058111156107bd576107bc611c76565b5b1461081057600060169054906101000a900460ff16816040517f35ae19f2000000000000000000000000000000000000000000000000000000008152600401610807929190611e72565b60405180910390fd5b600360003373ffffffffffffffffffffffffffffffffffffffff1673ffffffffffffffffffffffffffffffffffffffff16815260200190815260200160002060009054906101000a900460ff161561089f57336040517fef363b8e0000000000000000000000000000000000000000000000000000000081526004016108969190611bcc565b60405180910390fd5b600083839050036108dc576040517f21aaed9500000000000000000000000000000000000000000000000000000000815260040160405180910390fd5b6001604051806040016040528085858080601f016020809104026020016040519081016040528093929190818152602001838380828437600081840152601f19601f820116905080830192505050505050508152602001600061ffff168152509080600181540180825580915050600190039060005260206000209060020201600090919091909150600082015181600001908161097a91906121b0565b5060208201518160010160006101000a81548161ffff021916908361ffff16021790555050506001600360003373ffffffffffffffffffffffffffffffffffffffff1673ffffffffffffffffffffffffffffffffffffffff16815260200190815260200160002060006101000a81548160ff0219169083151502179055507f92e393e9b54e2f801d3ea4beb0c5e71a21cc34a5d34b77d0fb8a3aa1650dc18f60018080549050610a2a9190612282565b604051610a379190611a23565b60405180910390a1505050565b610a4c611792565b6004806005811115610a6157610a60611c76565b5b600060169054906101000a900460ff166005811115610a8357610a82611c76565b5b14610ad657600060169054906101000a900460ff16816040517f35ae19f2000000000000000000000000000000000000000000000000000000008152600401610acd929190611e72565b60405180910390fd5b6005600060166101000a81548160ff02191690836005811115610afc57610afb611c76565b5b02179055507f0a97a4ee45751e2abf3e4fc8946939630b11b371ea8ae39ccdc3056e98f5cc3f60046005604051610b34929190611e72565b60405180910390a150565b606481565b610b4c611792565b610b566000611819565b565b60008060009054906101000a900473ffffffffffffffffffffffffffffffffffffffff16905090565b6000600180549050905090565b60036020528060005260406000206000915054906101000a900460ff1681565b600060169054906101000a900460ff1681565b610bc96118e5565b60018281548110610bdd57610bdc611ec4565b5b9060005260206000209060020201604051806040016040529081600082018054610c0690611fd3565b80601f0160208091040260200160405190810160405280929190818152602001828054610c3290611fd3565b8015610c7f5780601f10610c5457610100808354040283529160200191610c7f565b820191906000526020600020905b815481529060010190602001808311610c6257829003601f168201915b505050505081526020016001820160009054906101000a900461ffff1661ffff1661ffff16815250509050919050565b610cb7611792565b6003806005811115610ccc57610ccb611c76565b5b600060169054906101000a900460ff166005811115610cee57610ced611c76565b5b14610d4157600060169054906101000a900460ff16816040517f35ae19f2000000000000000000000000000000000000000000000000000000008152600401610d38929190611e72565b60405180910390fd5b6004600060166101000a81548160ff02191690836005811115610d6757610d66611c76565b5b02179055507f0a97a4ee45751e2abf3e4fc8946939630b11b371ea8ae39ccdc3056e98f5cc3f60036004604051610d9f929190611e72565b60405180910390a150565b600060149054906101000a900461ffff1681565b610dc6611792565b6000806005811115610ddb57610dda611c76565b5b600060169054906101000a900460ff166005811115610dfd57610dfc611c76565b5b14610e5057600060169054906101000a900460ff16816040517f35ae19f2000000000000000000000000000000000000000000000000000000008152600401610e47929190611e72565b60405180910390fd5b6001600060166101000a81548160ff02191690836005811115610e7657610e75611c76565b5b0217905550600160405180604001604052806040518060400160405280600781526020017f47454e45534953000000000000000000000000000000000000000000000000008152508152602001600061ffff1681525090806001815401808255809150506001900390600052602060002090600202016000909190919091506000820151816000019081610f0a91906121b0565b5060208201518160010160006101000a81548161ffff021916908361ffff160217905550505060005b600480549050811015610fe35760006003600060048481548110610f5a57610f59611ec4565b5b9060005260206000200160009054906101000a900473ffffffffffffffffffffffffffffffffffffffff1673ffffffffffffffffffffffffffffffffffffffff1673ffffffffffffffffffffffffffffffffffffffff16815260200190815260200160002060006101000a81548160ff0219169083151502179055508080600101915050610f33565b507f0a97a4ee45751e2abf3e4fc8946939630b11b371ea8ae39ccdc3056e98f5cc3f60006001604051611017929190611e72565b60405180910390a150565b61102a611792565b600180600581111561103f5761103e611c76565b5b600060169054906101000a900460ff16600581111561106157611060611c76565b5b146110b457600060169054906101000a900460ff16816040517f35ae19f20000000000000000000000000000000000000000000000000000000081526004016110ab929190611e72565b60405180910390fd5b6002600060166101000a81548160ff021916908360058111156110da576110d9611c76565b5b02179055507f0a97a4ee45751e2abf3e4fc8946939630b11b371ea8ae39ccdc3056e98f5cc3f60016002604051611112929190611e72565b60405180910390a150565b611125611903565b600260008373ffffffffffffffffffffffffffffffffffffffff1673ffffffffffffffffffffffffffffffffffffffff1681526020019081526020016000206040518060600160405290816000820160009054906101000a900460ff161515151581526020016000820160019054906101000a900460ff161515151581526020016000820160029054906101000a900461ffff1661ffff1661ffff16815250509050919050565b6111d4611792565b600160006111e2919061192c565b60008060146101000a81548161ffff021916908361ffff16021790555060008060166101000a81548160ff0219169083600581111561122457611223611c76565b5b021790555060005b6004805490508110156113585760006004828154811061124f5761124e611ec4565b5b9060005260206000200160009054906101000a900473ffffffffffffffffffffffffffffffffffffffff169050600260008273ffffffffffffffffffffffffffffffffffffffff1673ffffffffffffffffffffffffffffffffffffffff168152602001908152602001600020600080820160006101000a81549060ff02191690556000820160016101000a81549060ff02191690556000820160026101000a81549061ffff02191690555050600360008273ffffffffffffffffffffffffffffffffffffffff1673ffffffffffffffffffffffffffffffffffffffff16815260200190815260200160002060006101000a81549060ff021916905550808060010191505061122c565b50600460006113679190611950565b565b6004818154811061137957600080fd5b906000526020600020016000915054906101000a900473ffffffffffffffffffffffffffffffffffffffff1681565b6113b0611792565b60028060058111156113c5576113c4611c76565b5b600060169054906101000a900460ff1660058111156113e7576113e6611c76565b5b1461143a57600060169054906101000a900460ff16816040517f35ae19f2000000000000000000000000000000000000000000000000000000008152600401611431929190611e72565b60405180910390fd5b6003600060166101000a81548160ff021916908360058111156114605761145f611c76565b5b02179055507f0a97a4ee45751e2abf3e4fc8946939630b11b371ea8ae39ccdc3056e98f5cc3f60026003604051611498929190611e72565b60405180910390a150565b6114ab611792565b600073ffffffffffffffffffffffffffffffffffffffff168173ffffffffffffffffffffffffffffffffffffffff160361151d5760006040517f1e4fbdf70000000000000000000000000000000000000000000000000000000081526004016115149190611bcc565b60405180910390fd5b61152681611819565b50565b611531611792565b600080600581111561154657611545611c76565b5b600060169054906101000a900460ff16600581111561156857611567611c76565b5b146115bb57600060169054906101000a900460ff16816040517f35ae19f20000000000000000000000000000000000000000000000000000000081526004016115b2929190611e72565b60405180910390fd5b606461ffff1660048054905010611607576040517f08c379a00000000000000000000000000000000000000000000000000000000081526004016115fe90612313565b60405180910390fd5b600260008373ffffffffffffffffffffffffffffffffffffffff1673ffffffffffffffffffffffffffffffffffffffff16815260200190815260200160002060000160009054906101000a900460ff161561169957816040517f45ed80e90000000000000000000000000000000000000000000000000000000081526004016116909190611bcc565b60405180910390fd5b6001600260008473ffffffffffffffffffffffffffffffffffffffff1673ffffffffffffffffffffffffffffffffffffffff16815260200190815260200160002060000160006101000a81548160ff0219169083151502179055506004829080600181540180825580915050600190039060005260206000200160009091909190916101000a81548173ffffffffffffffffffffffffffffffffffffffff021916908373ffffffffffffffffffffffffffffffffffffffff1602179055507fb6be2187d059cc2a55fe29e0e503b566e1e0f8c8780096e185429350acffd3dd826040516117869190611bcc565b60405180910390a15050565b61179a6118dd565b73ffffffffffffffffffffffffffffffffffffffff166117b8610b58565b73ffffffffffffffffffffffffffffffffffffffff1614611817576117db6118dd565b6040517f118cdaa700000000000000000000000000000000000000000000000000000000815260040161180e9190611bcc565b60405180910390fd5b565b60008060009054906101000a900473ffffffffffffffffffffffffffffffffffffffff169050816000806101000a81548173ffffffffffffffffffffffffffffffffffffffff021916908373ffffffffffffffffffffffffffffffffffffffff1602179055508173ffffffffffffffffffffffffffffffffffffffff168173ffffffffffffffffffffffffffffffffffffffff167f8be0079c531659141344cd1fd0a4f28419497f9722a3daafe3b4186f6b6457e060405160405180910390a35050565b600033905090565b604051806040016040528060608152602001600061ffff1681525090565b6040518060600160405280600015158152602001600015158152602001600061ffff1681525090565b508054600082556002029060005260206000209081019061194d9190611971565b50565b508054600082559060005260206000209081019061196e91906119ad565b50565b5b808211156119a9576000808201600061198b91906119ca565b6001820160006101000a81549061ffff021916905550600201611972565b5090565b5b808211156119c65760008160009055506001016119ae565b5090565b5080546119d690611fd3565b6000825580601f106119e85750611a07565b601f016020900490600052602060002090810190611a0691906119ad565b5b50565b6000819050919050565b611a1d81611a0a565b82525050565b6000602082019050611a386000830184611a14565b92915050565b600080fd5b600080fd5b611a5181611a0a565b8114611a5c57600080fd5b50565b600081359050611a6e81611a48565b92915050565b600060208284031215611a8a57611a89611a3e565b5b6000611a9884828501611a5f565b91505092915050565b600080fd5b600080fd5b600080fd5b60008083601f840112611ac657611ac5611aa1565b5b8235905067ffffffffffffffff811115611ae357611ae2611aa6565b5b602083019150836001820283011115611aff57611afe611aab565b5b9250929050565b60008060208385031215611b1d57611b1c611a3e565b5b600083013567ffffffffffffffff811115611b3b57611b3a611a43565b5b611b4785828601611ab0565b92509250509250929050565b600061ffff82169050919050565b611b6a81611b53565b82525050565b6000602082019050611b856000830184611b61565b92915050565b600073ffffffffffffffffffffffffffffffffffffffff82169050919050565b6000611bb682611b8b565b9050919050565b611bc681611bab565b82525050565b6000602082019050611be16000830184611bbd565b92915050565b611bf081611bab565b8114611bfb57600080fd5b50565b600081359050611c0d81611be7565b92915050565b600060208284031215611c2957611c28611a3e565b5b6000611c3784828501611bfe565b91505092915050565b60008115159050919050565b611c5581611c40565b82525050565b6000602082019050611c706000830184611c4c565b92915050565b7f4e487b7100000000000000000000000000000000000000000000000000000000600052602160045260246000fd5b60068110611cb657611cb5611c76565b5b50565b6000819050611cc782611ca5565b919050565b6000611cd782611cb9565b9050919050565b611ce781611ccc565b82525050565b6000602082019050611d026000830184611cde565b92915050565b600081519050919050565b600082825260208201905092915050565b60005b83811015611d42578082015181840152602081019050611d27565b60008484015250505050565b6000601f19601f8301169050919050565b6000611d6a82611d08565b611d748185611d13565b9350611d84818560208601611d24565b611d8d81611d4e565b840191505092915050565b611da181611b53565b82525050565b60006040830160008301518482036000860152611dc48282611d5f565b9150506020830151611dd96020860182611d98565b508091505092915050565b60006020820190508181036000830152611dfe8184611da7565b905092915050565b611e0f81611c40565b82525050565b606082016000820151611e2b6000850182611e06565b506020820151611e3e6020850182611e06565b506040820151611e516040850182611d98565b50505050565b6000606082019050611e6c6000830184611e15565b92915050565b6000604082019050611e876000830185611cde565b611e946020830184611cde565b9392505050565b6000604082019050611eb06000830185611a14565b611ebd6020830184611a14565b9392505050565b7f4e487b7100000000000000000000000000000000000000000000000000000000600052603260045260246000fd5b7f4e487b7100000000000000000000000000000000000000000000000000000000600052601160045260246000fd5b6000611f2d82611b53565b915061ffff8203611f4157611f40611ef3565b5b600182019050919050565b6000604082019050611f616000830185611bbd565b611f6e6020830184611a14565b9392505050565b7f4e487b7100000000000000000000000000000000000000000000000000000000600052604160045260246000fd5b7f4e487b7100000000000000000000000000000000000000000000000000000000600052602260045260246000fd5b60006002820490506001821680611feb57607f821691505b602082108103611ffe57611ffd611fa4565b5b50919050565b60008190508160005260206000209050919050565b60006020601f8301049050919050565b600082821b905092915050565b6000600883026120667fffffffffffffffffffffffffffffffffffffffffffffffffffffffffffffffff82612029565b6120708683612029565b95508019841693508086168417925050509392505050565b6000819050919050565b60006120ad6120a86120a384611a0a565b612088565b611a0a565b9050919050565b6000819050919050565b6120c783612092565b6120db6120d3826120b4565b848454612036565b825550505050565b600090565b6120f06120e3565b6120fb8184846120be565b505050565b5b8181101561211f576121146000826120e8565b600181019050612101565b5050565b601f8211156121645761213581612004565b61213e84612019565b8101602085101561214d578190505b61216161215985612019565b830182612100565b50505b505050565b600082821c905092915050565b600061218760001984600802612169565b1980831691505092915050565b60006121a08383612176565b9150826002028217905092915050565b6121b982611d08565b67ffffffffffffffff8111156121d2576121d1611f75565b5b6121dc8254611fd3565b6121e7828285612123565b600060209050601f83116001811461221a5760008415612208578287015190505b6122128582612194565b86555061227a565b601f19841661222886612004565b60005b828110156122505784890151825560018201915060208501945060208101905061222b565b8683101561226d5784890151612269601f891682612176565b8355505b6001600288020188555050505b505050505050565b600061228d82611a0a565b915061229883611a0a565b92508282039050818111156122b0576122af611ef3565b5b92915050565b600082825260208201905092915050565b7f4d617820766f7465727320726561636865640000000000000000000000000000600082015250565b60006122fd6012836122b6565b9150612308826122c7565b602082019050919050565b6000602082019050818103600083015261232c816122f0565b905091905056fea264697066735822122081fa06a952c41b610f5cde2cea34ccb02f48871f45a78b30c5b1124c2341f7b564736f6c634300081c0033",
  "linkReferences": {},
  "deployedLinkReferences": {}
}